:100000000C942A000C94AA00189500001895000082
:10001000189500001895000018950000189500002C
:10002000189500001895000018950000189500001C
:10003000189500001895000018950000189500000C
:1000400018950000189500001895000018950000FC
:10005000189500008FE58DBFC8E3E0E24E2E84E0E6
:100060008EBFD4E0F4E05F2EA89584B7082E877F7A
:1000700084BF88E1992781BD91BDEEEFF3E0A0E652
:10008000B0E088278D933197E9F76624B89A8E9867
:100090008F9885B78C7F826085BF78947BB77064BA
:1000A0007BBFE0E0F0E0A0E1B0E00E942E0109306B
:1000B00018F011F00C945E000C946700E0E0F0E0A2
:1000C000A0E1BB2789E08C937BE70E941D01E0E063
:1000D000F0E0A0E6B0E00E942E0180E08093610095
:1000E000C098879B0C948D0000916000003018F040
:1000F00011F00C947D000C9482008091600081507E
:10010000809360008AE090E00E940801E0E0F0E067
:10011000A0E6B0E07BE70E941D01869B0C94A60040
:1001200000916000093010F00C949B00A0E6B0E054
:100130008C918F5F8C938AE090E00E940801E0E050
:10014000F0E0A0E6B0E07BE70E941D010C94710096
:10015000F894FFCF0F921F922F923F924F925F928F
:100160007F92AF92BF920F931F932F933F934F9322
:100170005F936F937F938F939F93AF93BF93CF932F
:10018000DF93EF93FF938FB78F93C09880E08093B6
:1001900061004091600000916100041718F011F0B7
:1001A0000C94E200EF93FF93E4ECF0E00E94FF0078
:1001B000FF91EF91A1E6B0E08C918F5F8C9310F4EA
:1001C0000C94C900C09A8F918FBFFF91EF91DF917E
:1001D000CF91BF91AF919F918F917F916F915F91DF
:1001E0004F913F912F911F910F91BF90AF907F90B2
:1001F0005F904F903F902F901F900F9018953197E0
:10020000F1F70895689462F80895E89462F8089503
:10021000EF93FF93EE27E82BE92B31F0E8EEF3E0C4
:100220003197F1F70197D1F7FF91EF910895E19997
:10023000FECFEEBBFFBB3196089591E001C092E086
:100240007B3751F47FB7F894F2DF8D918DBBE29A42
:10025000E19A9A95C9F77FBF7727089591E001C089
:1002600092E0E5DFE09A8DB38D939A95D1F70895EA
:00000001FF
